{
  "_format": "hh-sol-artifact-1",
  "contractName": "AccreditationRegistry",
  "sourceName": "contracts/AccreditationRegistry.sol",
  "abi": [
    {
      "inputs": [],
      "stateMutability": "nonpayable",
      "type": "constructor"
    },
    {
      "inputs": [],
      "name": "ECDSAInvalidSignature",
      "type": "error"
    },
    {
      "inputs": [
        {
          "internalType": "uint256",
          "name": "length",
          "type": "uint256"
        }
      ],
      "name": "ECDSAInvalidSignatureLength",
      "type": "error"
    },
    {
      "inputs": [
        {
          "internalType": "bytes32",
          "name": "s",
          "type": "bytes32"
        }
      ],
      "name": "ECDSAInvalidSignatureS",
      "type": "error"
    },
    {
      "inputs": [],
      "name": "InvalidShortString",
      "type": "error"
    },
    {
      "inputs": [
        {
          "internalType": "string",
          "name": "str",
          "type": "string"
        }
      ],
      "name": "StringTooLong",
      "type": "error"
    },
    {
      "anonymous": false,
      "inputs": [
        {
          "indexed": false,
          "internalType": "string",
          "name": "certificateId",
          "type": "string"
        },
        {
          "indexed": true,
          "internalType": "address",
          "name": "issuedBy",
          "type": "address"
        },
        {
          "indexed": false,
          "internalType": "string",
          "name": "rollNo",
          "type": "string"
        }
      ],
      "name": "CertificateCreated",
      "type": "event"
    },
    {
      "anonymous": false,
      "inputs": [],
      "name": "EIP712DomainChanged",
      "type": "event"
    },
    {
      "anonymous": false,
      "inputs": [
        {
          "indexed": true,
          "internalType": "address",
          "name": "newSigner",
          "type": "address"
        }
      ],
      "name": "TrustedSignerChanged",
      "type": "event"
    },
    {
      "inputs": [
        {
          "internalType": "string",
          "name": "",
          "type": "string"
        }
      ],
      "name": "certificates",
      "outputs": [
        {
          "internalType": "string",
          "name": "certificateId",
          "type": "string"
        },
        {
          "internalType": "string",
          "name": "studentName",
          "type": "string"
        },
        {
          "internalType": "string",
          "name": "course",
          "type": "string"
        },
        {
          "internalType": "string",
          "name": "rollNo",
          "type": "string"
        },
        {
          "internalType": "string",
          "name": "dateOfIssuing",
          "type": "string"
        },
        {
          "internalType": "address",
          "name": "issuedBy",
          "type": "address"
        },
        {
          "internalType": "uint256",
          "name": "issuedAt",
          "type": "uint256"
        },
        {
          "internalType": "bool",
          "name": "exists",
          "type": "bool"
        }
      ],
      "stateMutability": "view",
      "type": "function"
    },
    {
      "inputs": [
        {
          "internalType": "string",
          "name": "certificateId",
          "type": "string"
        },
        {
          "internalType": "string",
          "name": "studentName",
          "type": "string"
        },
        {
          "internalType": "string",
          "name": "course",
          "type": "string"
        },
        {
          "internalType": "string",
          "name": "rollNo",
          "type": "string"
        },
        {
          "internalType": "string",
          "name": "dateOfIssuing",
          "type": "string"
        },
        {
          "internalType": "bytes32",
          "name": "contentHash",
          "type": "bytes32"
        },
        {
          "internalType": "string",
          "name": "collegeName",
          "type": "string"
        },
        {
          "internalType": "uint256",
          "name": "validUntil",
          "type": "uint256"
        },
        {
          "internalType": "bytes",
          "name": "signature",
          "type": "bytes"
        }
      ],
      "name": "createCertificateWithProof",
      "outputs": [],
      "stateMutability": "nonpayable",
      "type": "function"
    },
    {
      "inputs": [],
      "name": "eip712Domain",
      "outputs": [
        {
          "internalType": "bytes1",
          "name": "fields",
          "type": "bytes1"
        },
        {
          "internalType": "string",
          "name": "name",
          "type": "string"
        },
        {
          "internalType": "string",
          "name": "version",
          "type": "string"
        },
        {
          "internalType": "uint256",
          "name": "chainId",
          "type": "uint256"
        },
        {
          "internalType": "address",
          "name": "verifyingContract",
          "type": "address"
        },
        {
          "internalType": "bytes32",
          "name": "salt",
          "type": "bytes32"
        },
        {
          "internalType": "uint256[]",
          "name": "extensions",
          "type": "uint256[]"
        }
      ],
      "stateMutability": "view",
      "type": "function"
    },
    {
      "inputs": [
        {
          "internalType": "string",
          "name": "certificateId",
          "type": "string"
        }
      ],
      "name": "getCertificate",
      "outputs": [
        {
          "components": [
            {
              "internalType": "string",
              "name": "certificateId",
              "type": "string"
            },
            {
              "internalType": "string",
              "name": "studentName",
              "type": "string"
            },
            {
              "internalType": "string",
              "name": "course",
              "type": "string"
            },
            {
              "internalType": "string",
              "name": "rollNo",
              "type": "string"
            },
            {
              "internalType": "string",
              "name": "dateOfIssuing",
              "type": "string"
            },
            {
              "internalType": "address",
              "name": "issuedBy",
              "type": "address"
            },
            {
              "internalType": "uint256",
              "name": "issuedAt",
              "type": "uint256"
            },
            {
              "internalType": "bool",
              "name": "exists",
              "type": "bool"
            }
          ],
          "internalType": "struct AccreditationRegistry.Certificate",
          "name": "",
          "type": "tuple"
        }
      ],
      "stateMutability": "view",
      "type": "function"
    },
    {
      "inputs": [
        {
          "internalType": "bytes32",
          "name": "",
          "type": "bytes32"
        }
      ],
      "name": "isCertificateIssued",
      "outputs": [
        {
          "internalType": "bool",
          "name": "",
          "type": "bool"
        }
      ],
      "stateMutability": "view",
      "type": "function"
    },
    {
      "inputs": [],
      "name": "owner",
      "outputs": [
        {
          "internalType": "address",
          "name": "",
          "type": "address"
        }
      ],
      "stateMutability": "view",
      "type": "function"
    },
    {
      "inputs": [
        {
          "internalType": "address",
          "name": "_newSigner",
          "type": "address"
        }
      ],
      "name": "setTrustedSigner",
      "outputs": [],
      "stateMutability": "nonpayable",
      "type": "function"
    },
    {
      "inputs": [],
      "name": "trustedSigner",
      "outputs": [
        {
          "internalType": "address",
          "name": "",
          "type": "address"
        }
      ],
      "stateMutability": "view",
      "type": "function"
    }
  ],
  "bytecode": "0x6101608060405234620001755762000017816200017a565b60158152602081017f41636372656469746174696f6e5265676973747279000000000000000000000081526040519162000051836200017a565b6001835260208301603160f81b81526200006b8262000196565b926101209384526200007d8562000369565b92610140938452519020938460e05251902091610100938385524660a0526040519360208501917f8b73c3c69bb8fe3d512ecc4cf759cc79239f7b179b0ffacaa9a75d522b39400f8352604086015260608501524660808501523060a085015260a0845260c084019380851060018060401b038611176200015f5760408590525190206080523060c052600280546001600160a01b03191633179055611789938462000517853960805184611662015260a0518461172d015260c0518461162c015260e051846116b1015251836116d7015251826104540152518161047d0152f35b634e487b7160e01b600052604160045260246000fd5b600080fd5b604081019081106001600160401b038211176200015f57604052565b8051602091908281101562000235575090601f825111620001d45780825192015190808310620001c557501790565b82600019910360031b1b161790565b90604051809263305a27a960e01b82528060048301528251908160248401526000935b8285106200021b575050604492506000838284010152601f80199101168101030190fd5b8481018201518686016044015293810193859350620001f7565b6001600160401b0381116200015f576000928354926001938481811c911680156200035e575b838210146200034a57601f811162000314575b5081601f8411600114620002ad57509282939183928694620002a1575b50501b916000199060031b1c191617905560ff90565b0151925038806200028b565b919083601f1981168780528488209488905b88838310620002f95750505010620002df575b505050811b01905560ff90565b015160001960f88460031b161c19169055388080620002d2565b858701518855909601959485019487935090810190620002bf565b85805284601f848820920160051c820191601f860160051c015b8281106200033e5750506200026e565b8781550185906200032e565b634e487b7160e01b86526022600452602486fd5b90607f16906200025b565b805160209081811015620003f75750601f825111620003965780825192015190808310620001c557501790565b90604051809263305a27a960e01b82528060048301528251908160248401526000935b828510620003dd575050604492506000838284010152601f80199101168101030190fd5b8481018201518686016044015293810193859350620003b9565b9192916001600160401b0381116200015f5760019182548381811c911680156200050b575b82821014620004f557601f8111620004bc575b5080601f83116001146200046f57508192939460009262000463575b5050600019600383901b1c191690821b17905560ff90565b0151905038806200044b565b90601f198316958460005282600020926000905b888210620004a45750508385969710620002df57505050811b01905560ff90565b80878596829496860151815501950193019062000483565b8360005283601f83600020920160051c820191601f850160051c015b828110620004e85750506200042f565b60008155018490620004d8565b634e487b7160e01b600052602260045260246000fd5b90607f16906200041c56fe608080604052600436101561001357600080fd5b60003560e01c90816345ad78a31461064c5750806356a1c7011461058e5780635e6b4a471461055d57806384b0196e1461043e5780638da5cb5b146104155780638f2b91ea146102ab578063ed0f2e75146100a55763f74d54801461007757600080fd5b346100a05760003660031901126100a0576003546040516001600160a01b039091168152602090f35b600080fd5b346100a0576020806003193601126100a0576004356001600160401b0381116100a0576100d6903690600401611122565b604051929182906100e685611197565b6060948581528583820152856040820152858082015285608082015260a081016000905260c081016000905260e0016000905282604051938492833781016004815203019020916040519161013a83611197565b60405180610148818761126f565b0361015390826111ce565b83526040519182610167816001880161126f565b0361017290846111ce565b838201928352604051948561018a816002840161126f565b0361019590876111ce565b60408581019687525193846101ad816003850161126f565b036101b890866111ce565b85830194855260405190816101d0816004860161126f565b036101db90836111ce565b60808701918252600160a01b6001900391826005850154169660a0890197885260068501549460c08a019586526007015460ff169560e08a0196151587526040519a8b9a898c5251610100809a8d01526101208c0161023991611172565b9451601f198c8703810160408e01529561025291611172565b905191858c830301908c015261026791611172565b905190838a82030160808b015261027d91611172565b9051918882030160a089015261029291611172565b94511660c08601525160e0850152511515908301520390f35b346100a05760203660031901126100a0576004356001600160401b0381116100a057366023820112156100a05761030760206102f46103c79336906024816004013591016111ef565b816040519382858094519384920161114f565b810160048152030190206040519061032a82610323818461126f565b03836111ce565b6040516103458161033e816001860161126f565b03826111ce565b604051916103618361035a816002850161126f565b03846111ce565b6103ff6040516103788161033e816003870161126f565b6103f1604051916103908361035a816004890161126f565b6103e360018060a01b03600587015416976103d560ff600760068a015499015416986040519c8d9c8d610100908181520190611172565b8c810360208e015290611172565b908a820360408c0152611172565b9088820360608a0152611172565b908682036080880152611172565b9260a085015260c0840152151560e08301520390f35b346100a05760003660031901126100a0576002546040516001600160a01b039091168152602090f35b346100a05760003660031901126100a0576104787f0000000000000000000000000000000000000000000000000000000000000000611305565b6104a17f00000000000000000000000000000000000000000000000000000000000000006113ff565b6040516020808201928284106001600160401b038511176105475791816104fa85946104ec979660405260008452604051978897600f60f81b895260e0858a015260e0890190611172565b908782036040890152611172565b91466060870152306080870152600060a087015285830360c0870152519182815201929160005b82811061053057505050500390f35b835185528695509381019392810192600101610521565b634e487b7160e01b600052604160045260246000fd5b346100a05760203660031901126100a0576004356000526005602052602060ff604060002054166040519015158152f35b346100a05760203660031901126100a0576004356001600160a01b03818116918290036100a0576002541633036105f857600380546001600160a01b031916821790557ffc34663d6e481c3ed985715061d3e369aa003416efd09293880e20cf2e8f53b5600080a2005b60405162461bcd60e51b815260206004820152602660248201527f4f6e6c7920746865206f776e65722063616e20706572666f726d20746869732060448201526530b1ba34b7b760d11b6064820152608490fd5b346100a0576101203660031901126100a0576004356001600160401b0381116100a05761067d903690600401611122565b91906024356001600160401b0381116100a05761069e903690600401611122565b9390926044356001600160401b0381116100a0576106c0903690600401611122565b9590916064356001600160401b0381116100a0576106e2903690600401611122565b9390966084356001600160401b0381116100a057610704903690600401611122565b92909360c4356001600160401b0381116100a057610726903690600401611122565b90610104356001600160401b0381116100a057610747903690600401611122565b6003546001600160a01b031694909391929085156110e0575060e43542101561109b5760a435600052600560205260ff604060002054166110215761078d9136916111ef565b6020815191012091604051927ff9e41c753ecef85dc5acf426df07234e16c02d6517544efc46b84f27af5fa4b26020850152336040850152606084015260e4356080840152608083528260a08101106001600160401b0360a085011117610547576108316108379260428560a0610840970160405260208151910120610811611629565b906040519161190160f01b835260028301526022820152209236916111ef565b906114d8565b909291926115a4565b6001600160a01b031603610fdc5760ff6007604051898b82376020818b81016004815203019020015416610f97576108879961089c6108a8936108c4976040519d8e611197565b8d610893368d8f6111ef565b905236916111ef565b60208c015236916111ef565b60408901526108b83685896111ef565b606089015236916111ef565b60808601523360a08601524260c0860152600160e08601526040518284823760208184810160048152030190209480518051906001600160401b0382116105475781906109118954611235565b601f8111610f47575b50602090601f8311600114610edb57600092610ed0575b50508160011b916000199060031b1c19161786555b60208101518051906001600160401b03821161054757819061096b60018a0154611235565b601f8111610e7d575b50602090601f8311600114610e0b57600092610e00575b50508160011b916000199060031b1c19161760018701555b60408101518051906001600160401b0382116105475781906109c860028a0154611235565b601f8111610dad575b50602090601f8311600114610d3b57600092610d30575b50508160011b916000199060031b1c19161760028701555b60608101518051906001600160401b038211610547578190610a2560038a0154611235565b601f8111610cdd575b50602090601f8311600114610c6b57600092610c60575b50508160011b916000199060031b1c19161760038701555b60808101519586516001600160401b03811161054757610a806004830154611235565b601f8111610c19575b506020601f8211600114610b7e57610b6e9493928260e0936007937fd416ef9333a2f0d6df38a272669e2fa8e8837298a139558496f06dd2c0828bb69b9c600092610b73575b50508160011b916000199060031b1c19161760048201555b6005810160018060a01b0360a0860151166bffffffffffffffffffffffff60a01b82541617905560c084015160068201550191015115159060ff199160ff83835416911617905560a43560005260056020526001604060002091825416179055610b5e6040519485946040865260408601916114b7565b90838203602085015233966114b7565b0390a2005b015190508c80610acf565b6004830160005260206000209860005b601f1984168110610c015750926001837fd416ef9333a2f0d6df38a272669e2fa8e8837298a139558496f06dd2c0828bb69a9b600794610b6e99989760e097601f19811610610be8575b505050811b016004820155610ae7565b015160001960f88460031b161c191690558c8080610bd8565b828201518b556001909a019960209283019201610b8e565b600483016000526020600020601f830160051c810160208410610c59575b601f830160051c82018110610c4d575050610a89565b60008155600101610c37565b5080610c37565b015190508880610a45565b9250600389016000526020600020906000935b601f1984168510610cc2576001945083601f19811610610ca9575b505050811b016003870155610a5d565b015160001960f88460031b161c19169055888080610c99565b81810151835560209485019460019093019290910190610c7e565b909150600389016000526020600020601f840160051c810160208510610d29575b90849392915b601f830160051c82018110610d1a575050610a2e565b60008155859450600101610d04565b5080610cfe565b0151905088806109e8565b9250600289016000526020600020906000935b601f1984168510610d92576001945083601f19811610610d79575b505050811b016002870155610a00565b015160001960f88460031b161c19169055888080610d69565b81810151835560209485019460019093019290910190610d4e565b909150600289016000526020600020601f840160051c810160208510610df9575b90849392915b601f830160051c82018110610dea5750506109d1565b60008155859450600101610dd4565b5080610dce565b01519050888061098b565b9250600189016000526020600020906000935b601f1984168510610e62576001945083601f19811610610e49575b505050811b0160018701556109a3565b015160001960f88460031b161c19169055888080610e39565b81810151835560209485019460019093019290910190610e1e565b909150600189016000526020600020601f840160051c810160208510610ec9575b90849392915b601f830160051c82018110610eba575050610974565b60008155859450600101610ea4565b5080610e9e565b015190508880610931565b9250886000526020600020906000935b601f1984168510610f2c576001945083601f19811610610f13575b505050811b018655610946565b015160001960f88460031b161c19169055888080610f06565b81810151835560209485019460019093019290910190610eeb565b909150886000526020600020601f840160051c810160208510610f90575b90849392915b601f830160051c82018110610f8157505061091a565b60008155859450600101610f6b565b5080610f65565b60405162461bcd60e51b815260206004820152601d60248201527f436572746966696361746520494420616c7265616479206578697374730000006044820152606490fd5b60405162461bcd60e51b815260206004820152601f60248201527f496e76616c69642061636372656469746174696f6e207369676e6174757265006044820152606490fd5b60405162461bcd60e51b815260206004820152604660248201527f5468697320726f6c6c206e756d6265722068617320616c72656164792062656560448201527f6e206973737565642061206365727469666963617465206279207468697320636064820152656f6c6c65676560d01b608482015260a490fd5b60405162461bcd60e51b815260206004820152601f60248201527f41636372656469746174696f6e2070726f6f66206861732065787069726564006044820152606490fd5b62461bcd60e51b815260206004820152601960248201527f54727573746564207369676e6572206973206e6f7420736574000000000000006044820152606490fd5b9181601f840112156100a0578235916001600160401b0383116100a057602083818601950101116100a057565b60005b8381106111625750506000910152565b8181015183820152602001611152565b9060209161118b8151809281855285808601910161114f565b601f01601f1916010190565b61010081019081106001600160401b0382111761054757604052565b604081019081106001600160401b0382111761054757604052565b90601f801991011681019081106001600160401b0382111761054757604052565b9291926001600160401b0382116105475760405191611218601f8201601f1916602001846111ce565b8294818452818301116100a0578281602093846000960137010152565b90600182811c92168015611265575b602083101461124f57565b634e487b7160e01b600052602260045260246000fd5b91607f1691611244565b906000929180549161128083611235565b9182825260019384811690816000146112e257506001146112a2575b50505050565b90919394506000526020928360002092846000945b8386106112ce57505050500101903880808061129c565b8054858701830152940193859082016112b7565b9294505050602093945060ff191683830152151560051b0101903880808061129c565b60ff81146113435760ff811690601f82116113315760405191611327836111b3565b8252602082015290565b604051632cd44ac360e21b8152600490fd5b5060405160008181549161135683611235565b808352926001908181169081156113dd5750600114611380575b5061137d925003826111ce565b90565b600080805291507f290decd9548b62a8d60345a988386fc84ba6bc95484008f6362f93160ef3e5635b8483106113c2575061137d935050810160200138611370565b819350908160209254838589010152019101909184926113a9565b90506020925061137d94915060ff191682840152151560051b82010138611370565b60ff81146114215760ff811690601f82116113315760405191611327836111b3565b5060405160008160019182549261143784611235565b808452938181169081156113dd575060011461145a575061137d925003826111ce565b600081815291507fb10e2d527612073b26eecdfd717e6a320cf44b4afac2b0732d9fcbe2b7fa0cf65b84831061149c575061137d935050810160200138611370565b81935090816020925483858901015201910190918492611483565b908060209392818452848401376000828201840152601f01601f1916010190565b81519190604183036115095761150292506020820151906060604084015193015160001a90611514565b9192909190565b505060009160029190565b91907f7fffffffffffffffffffffffffffffff5d576e7357a4501ddfe92f46681b20a0841161159857926020929160ff608095604051948552168484015260408301526060820152600092839182805260015afa1561158c5780516001600160a01b0381161561158357918190565b50809160019190565b604051903d90823e3d90fd5b50505060009160039190565b600481101561161357806115b6575050565b600181036115d05760405163f645eedf60e01b8152600490fd5b600281036115f15760405163fce698f760e01b815260048101839052602490fd5b6003146115fb5750565b602490604051906335e2f38360e21b82526004820152fd5b634e487b7160e01b600052602160045260246000fd5b307f00000000000000000000000000000000000000000000000000000000000000006001600160a01b0316148061172a575b15611684577f000000000000000000000000000000000000000000000000000000000000000090565b60405160208101907f8b73c3c69bb8fe3d512ecc4cf759cc79239f7b179b0ffacaa9a75d522b39400f82527f000000000000000000000000000000000000000000000000000000000000000060408201527f000000000000000000000000000000000000000000000000000000000000000060608201524660808201523060a082015260a0815260c081018181106001600160401b038211176105475760405251902090565b507f0000000000000000000000000000000000000000000000000000000000000000461461165b56fea2646970667358221220f268b31326fd614250e604711b7671d0e838bc6bf3e023af5bcaf94fd8cb483664736f6c63430008140033",
  "linkReferences": {},
  "deployedLinkReferences": {}
}